{
  "contractName": "TraitShop",
  "abi": [
    {
      "inputs": [
        {
          "internalType": "address",
          "name": "_apesTraits",
          "type": "address"
        },
        {
          "internalType": "address",
          "name": "_secret",
          "type": "address"
        }
      ],
      "stateMutability": "nonpayable",
      "type": "constructor"
    },
    {
      "anonymous": false,
      "inputs": [
        {
          "indexed": true,
          "internalType": "address",
          "name": "previousOwner",
          "type": "address"
        },
        {
          "indexed": true,
          "internalType": "address",
          "name": "newOwner",
          "type": "address"
        }
      ],
      "name": "OwnershipTransferred",
      "type": "event"
    },
    {
      "anonymous": false,
      "inputs": [
        {
          "indexed": true,
          "internalType": "address",
          "name": "buyer",
          "type": "address"
        },
        {
          "indexed": true,
          "internalType": "uint256",
          "name": "traitId",
          "type": "uint256"
        },
        {
          "indexed": false,
          "internalType": "uint256",
          "name": "price",
          "type": "uint256"
        },
        {
          "indexed": false,
          "internalType": "uint256",
          "name": "quantity",
          "type": "uint256"
        },
        {
          "indexed": false,
          "internalType": "bool",
          "name": "buyOnChain",
          "type": "bool"
        }
      ],
      "name": "TraitBought",
      "type": "event"
    },
    {
      "inputs": [],
      "name": "apesTraits",
      "outputs": [
        {
          "internalType": "contract ApesTraitsInterface",
          "name": "",
          "type": "address"
        }
      ],
      "stateMutability": "view",
      "type": "function"
    },
    {
      "inputs": [],
      "name": "owner",
      "outputs": [
        {
          "internalType": "address",
          "name": "",
          "type": "address"
        }
      ],
      "stateMutability": "view",
      "type": "function"
    },
    {
      "inputs": [],
      "name": "renounceOwnership",
      "outputs": [],
      "stateMutability": "nonpayable",
      "type": "function"
    },
    {
      "inputs": [],
      "name": "secret",
      "outputs": [
        {
          "internalType": "address",
          "name": "",
          "type": "address"
        }
      ],
      "stateMutability": "view",
      "type": "function"
    },
    {
      "inputs": [
        {
          "internalType": "address",
          "name": "newOwner",
          "type": "address"
        }
      ],
      "name": "transferOwnership",
      "outputs": [],
      "stateMutability": "nonpayable",
      "type": "function"
    },
    {
      "inputs": [
        {
          "internalType": "uint256",
          "name": "",
          "type": "uint256"
        }
      ],
      "name": "whiteListedTokens",
      "outputs": [
        {
          "internalType": "address",
          "name": "",
          "type": "address"
        }
      ],
      "stateMutability": "view",
      "type": "function"
    },
    {
      "inputs": [
        {
          "internalType": "address[]",
          "name": "tokenAddress",
          "type": "address[]"
        }
      ],
      "name": "setWhiteListedTokensAddress",
      "outputs": [],
      "stateMutability": "nonpayable",
      "type": "function"
    },
    {
      "inputs": [
        {
          "internalType": "address",
          "name": "tokenAddress",
          "type": "address"
        }
      ],
      "name": "isTokenWhitelisted",
      "outputs": [
        {
          "internalType": "bool",
          "name": "",
          "type": "bool"
        }
      ],
      "stateMutability": "view",
      "type": "function"
    },
    {
      "inputs": [
        {
          "internalType": "uint256",
          "name": "traitId",
          "type": "uint256"
        },
        {
          "internalType": "address",
          "name": "sponsorAddress",
          "type": "address"
        },
        {
          "internalType": "uint256",
          "name": "commissionPercentage",
          "type": "uint256"
        },
        {
          "internalType": "uint256",
          "name": "quantity",
          "type": "uint256"
        },
        {
          "internalType": "uint256",
          "name": "price",
          "type": "uint256"
        },
        {
          "internalType": "bool",
          "name": "buyOnChain",
          "type": "bool"
        },
        {
          "internalType": "bytes",
          "name": "signature",
          "type": "bytes"
        }
      ],
      "name": "buyTraitWithETH",
      "outputs": [],
      "stateMutability": "payable",
      "type": "function"
    },
    {
      "inputs": [
        {
          "internalType": "uint256",
          "name": "traitId",
          "type": "uint256"
        },
        {
          "internalType": "address",
          "name": "sponsorAddress",
          "type": "address"
        },
        {
          "internalType": "uint256",
          "name": "commissionPercentage",
          "type": "uint256"
        },
        {
          "internalType": "uint256",
          "name": "quantity",
          "type": "uint256"
        },
        {
          "internalType": "uint256",
          "name": "price",
          "type": "uint256"
        },
        {
          "internalType": "address",
          "name": "erc20TokenAddress",
          "type": "address"
        },
        {
          "internalType": "bool",
          "name": "buyOnChain",
          "type": "bool"
        },
        {
          "internalType": "bytes",
          "name": "signature",
          "type": "bytes"
        }
      ],
      "name": "buyTraitWithERC20",
      "outputs": [],
      "stateMutability": "nonpayable",
      "type": "function"
    },
    {
      "inputs": [],
      "name": "withdrawAll",
      "outputs": [],
      "stateMutability": "nonpayable",
      "type": "function"
    },
    {
      "inputs": [
        {
          "internalType": "address",
          "name": "account",
          "type": "address"
        }
      ],
      "name": "getEthBalance",
      "outputs": [
        {
          "internalType": "uint256",
          "name": "",
          "type": "uint256"
        }
      ],
      "stateMutability": "view",
      "type": "function"
    },
    {
      "inputs": [
        {
          "internalType": "address",
          "name": "account",
          "type": "address"
        },
        {
          "internalType": "address",
          "name": "token",
          "type": "address"
        }
      ],
      "name": "getTokenBalance",
      "outputs": [
        {
          "internalType": "uint256",
          "name": "",
          "type": "uint256"
        }
      ],
      "stateMutability": "view",
      "type": "function"
    },
    {
      "inputs": [
        {
          "internalType": "address",
          "name": "_secret",
          "type": "address"
        }
      ],
      "name": "setSecret",
      "outputs": [],
      "stateMutability": "nonpayable",
      "type": "function"
    }
  ],
  "bytecode": "0x60806040523480156200001157600080fd5b50604051620024443803806200244483398181016040528101906200003791906200021e565b620000576200004b620000e860201b60201c565b620000f060201b60201c565b6001808190555081600560006101000a81548173ffffffffffffffffffffffffffffffffffffffff021916908373ffffffffffffffffffffffffffffffffffffffff16021790555080600660006101000a81548173ffffffffffffffffffffffffffffffffffffffff021916908373ffffffffffffffffffffffffffffffffffffffff160217905550505062000265565b600033905090565b60008060009054906101000a900473ffffffffffffffffffffffffffffffffffffffff169050816000806101000a81548173ffffffffffffffffffffffffffffffffffffffff021916908373ffffffffffffffffffffffffffffffffffffffff1602179055508173ffffffffffffffffffffffffffffffffffffffff168173ffffffffffffffffffffffffffffffffffffffff167f8be0079c531659141344cd1fd0a4f28419497f9722a3daafe3b4186f6b6457e060405160405180910390a35050565b600080fd5b600073ffffffffffffffffffffffffffffffffffffffff82169050919050565b6000620001e682620001b9565b9050919050565b620001f881620001d9565b81146200020457600080fd5b50565b6000815190506200021881620001ed565b92915050565b60008060408385031215620002385762000237620001b4565b5b6000620002488582860162000207565b92505060206200025b8582860162000207565b9150509250929050565b6121cf80620002756000396000f3fe6080604052600436106100dd5760003560e01c8063853828b61161007f578063c489744b11610059578063c489744b1461028b578063d1efd30d146102c8578063e9a7484c146102f3578063f2fde38b1461031c576100dd565b8063853828b61461020c5780638da5cb5b14610223578063b5af090f1461024e576100dd565b80635ecb63e6116100bb5780635ecb63e61461017357806360d8cfbd1461019c5780636aee0e63146101b8578063715018a6146101f5576100dd565b806310ef0310146100e25780634d2301cc1461010d5780635b82455a1461014a575b600080fd5b3480156100ee57600080fd5b506100f7610345565b60405161010491906113e0565b60405180910390f35b34801561011957600080fd5b50610134600480360381019061012f919061144d565b61036b565b6040516101419190611493565b60405180910390f35b34801561015657600080fd5b50610171600480360381019061016c9190611658565b6103b4565b005b34801561017f57600080fd5b5061019a600480360381019061019591906117f2565b610756565b005b6101b660048036038101906101b1919061183b565b6107fe565b005b3480156101c457600080fd5b506101df60048036038101906101da91906118f9565b610a9b565b6040516101ec9190611935565b60405180910390f35b34801561020157600080fd5b5061020a610ada565b005b34801561021857600080fd5b50610221610aee565b005b34801561022f57600080fd5b50610238610e24565b6040516102459190611935565b60405180910390f35b34801561025a57600080fd5b506102756004803603810190610270919061144d565b610e4d565b604051610282919061195f565b60405180910390f35b34801561029757600080fd5b506102b260048036038101906102ad919061197a565b610efb565b6040516102bf9190611493565b60405180910390f35b3480156102d457600080fd5b506102dd610f82565b6040516102ea9190611935565b60405180910390f35b3480156102ff57600080fd5b5061031a6004803603810190610315919061144d565b610fa8565b005b34801561032857600080fd5b50610343600480360381019061033e919061144d565b610ff4565b005b600560009054906101000a900473ffffffffffffffffffffffffffffffffffffffff1681565b6000600260008373ffffffffffffffffffffffffffffffffffffffff1673ffffffffffffffffffffffffffffffffffffffff168152602001908152602001600020549050919050565b826103be81610e4d565b6103fd576040517f08c379a00000000000000000000000000000000000000000000000000000000081526004016103f490611a3d565b60405180910390fd5b610405611077565b6104438989898989898933604051602001610427989796959493929190611a5d565b60405160208183030381529060405280519060200120836110c6565b610482576040517f08c379a000000000000000000000000000000000000000000000000000000000815260040161047990611b27565b60405180910390fd5b8373ffffffffffffffffffffffffffffffffffffffff166323b872dd3330886040518463ffffffff1660e01b81526004016104bf93929190611b47565b6020604051808303816000875af11580156104de573d6000803e3d6000fd5b505050506040513d601f19601f820116820180604052508101906105029190611b93565b506000606488876105139190611bef565b61051d9190611c60565b9050808661052b9190611c91565b60046000610537610e24565b73ffffffffffffffffffffffffffffffffffffffff1673ffffffffffffffffffffffffffffffffffffffff16815260200190815260200160002060008773ffffffffffffffffffffffffffffffffffffffff1673ffffffffffffffffffffffffffffffffffffffff16815260200190815260200160002060008282546105bd9190611cc5565b9250508190555080600460008b73ffffffffffffffffffffffffffffffffffffffff1673ffffffffffffffffffffffffffffffffffffffff16815260200190815260200160002060008773ffffffffffffffffffffffffffffffffffffffff1673ffffffffffffffffffffffffffffffffffffffff16815260200190815260200160002060008282546106509190611cc5565b9250508190555083156106ef57600560009054906101000a900473ffffffffffffffffffffffffffffffffffffffff1673ffffffffffffffffffffffffffffffffffffffff1663156e29f6338c8a6040518463ffffffff1660e01b81526004016106bc93929190611cf9565b600060405180830381600087803b1580156106d657600080fd5b505af11580156106ea573d6000803e3d6000fd5b505050505b893373ffffffffffffffffffffffffffffffffffffffff167fee6cb29eb1c00f061a94fe2a2ab0abc83bbb47951f17aee4ac247480c715a2c0888a8860405161073a93929190611d30565b60405180910390a35061074b61120e565b505050505050505050565b61075e611217565b60005b81518110156107fa57600382828151811061077f5761077e611d67565b5b60200260200101519080600181540180825580915050600190039060005260206000200160009091909190916101000a81548173ffffffffffffffffffffffffffffffffffffffff021916908373ffffffffffffffffffffffffffffffffffffffff16021790555080806107f290611d96565b915050610761565b5050565b610806611077565b610842878787878787336040516020016108269796959493929190611dde565b60405160208183030381529060405280519060200120826110c6565b610881576040517f08c379a000000000000000000000000000000000000000000000000000000000815260040161087890611b27565b60405180910390fd5b823410156108c4576040517f08c379a00000000000000000000000000000000000000000000000000000000081526004016108bb90611e99565b60405180910390fd5b6000606486346108d49190611bef565b6108de9190611c60565b905080346108ec9190611c91565b600260006108f8610e24565b73ffffffffffffffffffffffffffffffffffffffff1673ffffffffffffffffffffffffffffffffffffffff16815260200190815260200160002060008282546109419190611cc5565b9250508190555080600260008973ffffffffffffffffffffffffffffffffffffffff1673ffffffffffffffffffffffffffffffffffffffff16815260200190815260200160002060008282546109979190611cc5565b925050819055508215610a3657600560009054906101000a900473ffffffffffffffffffffffffffffffffffffffff1673ffffffffffffffffffffffffffffffffffffffff1663156e29f6338a886040518463ffffffff1660e01b8152600401610a0393929190611cf9565b600060405180830381600087803b158015610a1d57600080fd5b505af1158015610a31573d6000803e3d6000fd5b505050505b873373ffffffffffffffffffffffffffffffffffffffff167fee6cb29eb1c00f061a94fe2a2ab0abc83bbb47951f17aee4ac247480c715a2c0348887604051610a8193929190611d30565b60405180910390a350610a9261120e565b50505050505050565b60038181548110610aab57600080fd5b906000526020600020016000915054906101000a900473ffffffffffffffffffffffffffffffffffffffff1681565b610ae2611217565b610aec6000611295565b565b6000600260003373ffffffffffffffffffffffffffffffffffffffff1673ffffffffffffffffffffffffffffffffffffffff1681526020019081526020016000205490506000811115610bc8576000600260003373ffffffffffffffffffffffffffffffffffffffff1673ffffffffffffffffffffffffffffffffffffffff168152602001908152602001600020819055503373ffffffffffffffffffffffffffffffffffffffff166108fc829081150290604051600060405180830381858888f19350505050158015610bc6573d6000803e3d6000fd5b505b60006003805480602002602001604051908101604052809291908181526020018280548015610c4c57602002820191906000526020600020905b8160009054906101000a900473ffffffffffffffffffffffffffffffffffffffff1673ffffffffffffffffffffffffffffffffffffffff1681526020019060010190808311610c02575b5050505050905060005b8151811015610e1f576000828281518110610c7457610c73611d67565b5b602002602001015190506000600460003373ffffffffffffffffffffffffffffffffffffffff1673ffffffffffffffffffffffffffffffffffffffff16815260200190815260200160002060008373ffffffffffffffffffffffffffffffffffffffff1673ffffffffffffffffffffffffffffffffffffffff1681526020019081526020016000205490506000811115610e0a576000600460003373ffffffffffffffffffffffffffffffffffffffff1673ffffffffffffffffffffffffffffffffffffffff16815260200190815260200160002060008473ffffffffffffffffffffffffffffffffffffffff1673ffffffffffffffffffffffffffffffffffffffff168152602001908152602001600020819055508173ffffffffffffffffffffffffffffffffffffffff1663a9059cbb33836040518363ffffffff1660e01b8152600401610dc5929190611eb9565b6020604051808303816000875af1158015610de4573d6000803e3d6000fd5b505050506040513d601f19601f82011682018060405250810190610e089190611b93565b505b50508080610e1790611d96565b915050610c56565b505050565b60008060009054906101000a900473ffffffffffffffffffffffffffffffffffffffff16905090565b600080600090505b600380549050811015610ef0578273ffffffffffffffffffffffffffffffffffffffff1660038281548110610e8d57610e8c611d67565b5b9060005260206000200160009054906101000a900473ffffffffffffffffffffffffffffffffffffffff1673ffffffffffffffffffffffffffffffffffffffff1603610edd576001915050610ef6565b8080610ee890611d96565b915050610e55565b50600090505b919050565b6000600460008473ffffffffffffffffffffffffffffffffffffffff1673ffffffffffffffffffffffffffffffffffffffff16815260200190815260200160002060008373ffffffffffffffffffffffffffffffffffffffff1673ffffffffffffffffffffffffffffffffffffffff16815260200190815260200160002054905092915050565b600660009054906101000a900473ffffffffffffffffffffffffffffffffffffffff1681565b610fb0611217565b80600660006101000a81548173ffffffffffffffffffffffffffffffffffffffff021916908373ffffffffffffffffffffffffffffffffffffffff16021790555050565b610ffc611217565b600073ffffffffffffffffffffffffffffffffffffffff168173ffffffffffffffffffffffffffffffffffffffff160361106b576040517f08c379a000000000000000000000000000000000000000000000000000000000815260040161106290611f54565b60405180910390fd5b61107481611295565b50565b6002600154036110bc576040517f08c379a00000000000000000000000000000000000000000000000000000000081526004016110b390611fc0565b60405180910390fd5b6002600181905550565b600080836040516020016110da9190612062565b6040516020818303038152906040528051906020012090506000806000604186511461110d576000945050505050611208565b6020860151925060408601519150606086015160001a9050601b8160ff16101561114157601b8161113e9190612095565b90505b6000601b8260ff1614806111585750601c8260ff16145b156111af576001858386866040516000815260200160405260405161118094939291906120e8565b6020604051602081039080840390855afa1580156111a2573d6000803e3d6000fd5b5050506020604051035190505b8073ffffffffffffffffffffffffffffffffffffffff16600660009054906101000a900473ffffffffffffffffffffffffffffffffffffffff1673ffffffffffffffffffffffffffffffffffffffff1614955050505050505b92915050565b60018081905550565b61121f611359565b73ffffffffffffffffffffffffffffffffffffffff1661123d610e24565b73ffffffffffffffffffffffffffffffffffffffff1614611293576040517f08c379a000000000000000000000000000000000000000000000000000000000815260040161128a90612179565b60405180910390fd5b565b60008060009054906101000a900473ffffffffffffffffffffffffffffffffffffffff169050816000806101000a81548173ffffffffffffffffffffffffffffffffffffffff021916908373ffffffffffffffffffffffffffffffffffffffff1602179055508173ffffffffffffffffffffffffffffffffffffffff168173ffffffffffffffffffffffffffffffffffffffff167f8be0079c531659141344cd1fd0a4f28419497f9722a3daafe3b4186f6b6457e060405160405180910390a35050565b600033905090565b600073ffffffffffffffffffffffffffffffffffffffff82169050919050565b6000819050919050565b60006113a66113a161139c84611361565b611381565b611361565b9050919050565b60006113b88261138b565b9050919050565b60006113ca826113ad565b9050919050565b6113da816113bf565b82525050565b60006020820190506113f560008301846113d1565b92915050565b6000604051905090565b600080fd5b600080fd5b600061141a82611361565b9050919050565b61142a8161140f565b811461143557600080fd5b50565b60008135905061144781611421565b92915050565b60006020828403121561146357611462611405565b5b600061147184828501611438565b91505092915050565b6000819050919050565b61148d8161147a565b82525050565b60006020820190506114a86000830184611484565b92915050565b6114b78161147a565b81146114c257600080fd5b50565b6000813590506114d4816114ae565b92915050565b60008115159050919050565b6114ef816114da565b81146114fa57600080fd5b50565b60008135905061150c816114e6565b92915050565b600080fd5b600080fd5b6000601f19601f8301169050919050565b7f4e487b7100000000000000000000000000000000000000000000000000000000600052604160045260246000fd5b6115658261151c565b810181811067ffffffffffffffff821117156115845761158361152d565b5b80604052505050565b60006115976113fb565b90506115a3828261155c565b919050565b600067ffffffffffffffff8211156115c3576115c261152d565b5b6115cc8261151c565b9050602081019050919050565b82818337600083830152505050565b60006115fb6115f6846115a8565b61158d565b90508281526020810184848401111561161757611616611517565b5b6116228482856115d9565b509392505050565b600082601f83011261163f5761163e611512565b5b813561164f8482602086016115e8565b91505092915050565b600080600080600080600080610100898b03121561167957611678611405565b5b60006116878b828c016114c5565b98505060206116988b828c01611438565b97505060406116a98b828c016114c5565b96505060606116ba8b828c016114c5565b95505060806116cb8b828c016114c5565b94505060a06116dc8b828c01611438565b93505060c06116ed8b828c016114fd565b92505060e089013567ffffffffffffffff81111561170e5761170d61140a565b5b61171a8b828c0161162a565b9150509295985092959890939650565b600067ffffffffffffffff8211156117455761174461152d565b5b602082029050602081019050919050565b600080fd5b600061176e6117698461172a565b61158d565b9050808382526020820190506020840283018581111561179157611790611756565b5b835b818110156117ba57806117a68882611438565b845260208401935050602081019050611793565b5050509392505050565b600082601f8301126117d9576117d8611512565b5b81356117e984826020860161175b565b91505092915050565b60006020828403121561180857611807611405565b5b600082013567ffffffffffffffff8111156118265761182561140a565b5b611832848285016117c4565b91505092915050565b600080600080600080600060e0888a03121561185a57611859611405565b5b60006118688a828b016114c5565b97505060206118798a828b01611438565b965050604061188a8a828b016114c5565b955050606061189b8a828b016114c5565b94505060806118ac8a828b016114c5565b93505060a06118bd8a828b016114fd565b92505060c088013567ffffffffffffffff8111156118de576118dd61140a565b5b6118ea8a828b0161162a565b91505092959891949750929550565b60006020828403121561190f5761190e611405565b5b600061191d848285016114c5565b91505092915050565b61192f8161140f565b82525050565b600060208201905061194a6000830184611926565b92915050565b611959816114da565b82525050565b60006020820190506119746000830184611950565b92915050565b6000806040838503121561199157611990611405565b5b600061199f85828601611438565b92505060206119b085828601611438565b9150509250929050565b600082825260208201905092915050565b7f547261697453686f703a20546f6b656e2061646472657373206973206e6f742060008201527f77686974656c69737465642e0000000000000000000000000000000000000000602082015250565b6000611a27602c836119ba565b9150611a32826119cb565b604082019050919050565b60006020820190508181036000830152611a5681611a1a565b9050919050565b600061010082019050611a73600083018b611484565b611a80602083018a611926565b611a8d6040830189611484565b611a9a6060830188611484565b611aa76080830187611484565b611ab460a0830186611926565b611ac160c0830185611950565b611ace60e0830184611926565b9998505050505050505050565b7f547261697453686f703a205369676e617475726520697320696e76616c696400600082015250565b6000611b11601f836119ba565b9150611b1c82611adb565b602082019050919050565b60006020820190508181036000830152611b4081611b04565b9050919050565b6000606082019050611b5c6000830186611926565b611b696020830185611926565b611b766040830184611484565b949350505050565b600081519050611b8d816114e6565b92915050565b600060208284031215611ba957611ba8611405565b5b6000611bb784828501611b7e565b91505092915050565b7f4e487b7100000000000000000000000000000000000000000000000000000000600052601160045260246000fd5b6000611bfa8261147a565b9150611c058361147a565b9250828202611c138161147a565b91508282048414831517611c2a57611c29611bc0565b5b5092915050565b7f4e487b7100000000000000000000000000000000000000000000000000000000600052601260045260246000fd5b6000611c6b8261147a565b9150611c768361147a565b925082611c8657611c85611c31565b5b828204905092915050565b6000611c9c8261147a565b9150611ca78361147a565b9250828203905081811115611cbf57611cbe611bc0565b5b92915050565b6000611cd08261147a565b9150611cdb8361147a565b9250828201905080821115611cf357611cf2611bc0565b5b92915050565b6000606082019050611d0e6000830186611926565b611d1b6020830185611484565b611d286040830184611484565b949350505050565b6000606082019050611d456000830186611484565b611d526020830185611484565b611d5f6040830184611950565b949350505050565b7f4e487b7100000000000000000000000000000000000000000000000000000000600052603260045260246000fd5b6000611da18261147a565b91507fffffffffffffffffffffffffffffffffffffffffffffffffffffffffffffffff8203611dd357611dd2611bc0565b5b600182019050919050565b600060e082019050611df3600083018a611484565b611e006020830189611926565b611e0d6040830188611484565b611e1a6060830187611484565b611e276080830186611484565b611e3460a0830185611950565b611e4160c0830184611926565b98975050505050505050565b7f547261697453686f703a20496e76616c69642070726963650000000000000000600082015250565b6000611e836018836119ba565b9150611e8e82611e4d565b602082019050919050565b60006020820190508181036000830152611eb281611e76565b9050919050565b6000604082019050611ece6000830185611926565b611edb6020830184611484565b9392505050565b7f4f776e61626c653a206e6577206f776e657220697320746865207a65726f206160008201527f6464726573730000000000000000000000000000000000000000000000000000602082015250565b6000611f3e6026836119ba565b9150611f4982611ee2565b604082019050919050565b60006020820190508181036000830152611f6d81611f31565b9050919050565b7f5265656e7472616e637947756172643a207265656e7472616e742063616c6c00600082015250565b6000611faa601f836119ba565b9150611fb582611f74565b602082019050919050565b60006020820190508181036000830152611fd981611f9d565b9050919050565b600081905092915050565b7f19457468657265756d205369676e6564204d6573736167653a0a333200000000600082015250565b6000612021601c83611fe0565b915061202c82611feb565b601c82019050919050565b6000819050919050565b6000819050919050565b61205c61205782612037565b612041565b82525050565b600061206d82612014565b9150612079828461204b565b60208201915081905092915050565b600060ff82169050919050565b60006120a082612088565b91506120ab83612088565b9250828201905060ff8111156120c4576120c3611bc0565b5b92915050565b6120d381612037565b82525050565b6120e281612088565b82525050565b60006080820190506120fd60008301876120ca565b61210a60208301866120d9565b61211760408301856120ca565b61212460608301846120ca565b95945050505050565b7f4f776e61626c653a2063616c6c6572206973206e6f7420746865206f776e6572600082015250565b60006121636020836119ba565b915061216e8261212d565b602082019050919050565b6000602082019050818103600083015261219281612156565b905091905056fea2646970667358221220a4594d5d03c7f6edeec3204f9e48e71d9675d55a8658781be44b88c0a9c637ca64736f6c63430008130033",
  "immutableReferences": {},
  "source": "// SPDX-License-Identifier: MIT\npragma solidity 0.8.19;\nimport \"@openzeppelin/contracts/access/Ownable.sol\";\nimport \"@openzeppelin/contracts/security/ReentrancyGuard.sol\";\nimport \"@openzeppelin/contracts/token/ERC20/IERC20.sol\";\nimport \"./Interfaces/ApesTraitsInterface.sol\";\n\ncontract TraitShop is Ownable, ReentrancyGuard {\n    mapping(address => uint256) private _ethBalances;\n    address[] public whiteListedTokens;\n\n    mapping(address => mapping(address => uint256)) private _tokenBalances;\n\n    ApesTraitsInterface public apesTraits;\n    address public secret;\n\n    event TraitBought(\n        address indexed buyer,\n        uint256 indexed traitId,\n        uint256 price,\n        uint256 quantity,\n        bool buyOnChain\n    );\n\n    constructor(address _apesTraits, address _secret) {\n        apesTraits = ApesTraitsInterface(_apesTraits);\n        secret = _secret;\n    }\n\n    function setWhiteListedTokensAddress(\n        address[] memory tokenAddress\n    ) public onlyOwner {\n        for (uint i = 0; i < tokenAddress.length; i++) {\n            whiteListedTokens.push(tokenAddress[i]);\n        }\n    }\n\n    function isTokenWhitelisted(\n        address tokenAddress\n    ) public view returns (bool) {\n        for (uint i = 0; i < whiteListedTokens.length; i++) {\n            if (whiteListedTokens[i] == tokenAddress) {\n                return true;\n            }\n        }\n        return false;\n    }\n\n    modifier onlyWhitelistedToken(address tokenAddress) {\n        require(\n            isTokenWhitelisted(tokenAddress),\n            \"TraitShop: Token address is not whitelisted.\"\n        );\n        _;\n    }\n\n    function buyTraitWithETH(\n        uint256 traitId,\n        address sponsorAddress,\n        uint256 commissionPercentage,\n        uint256 quantity,\n        uint256 price,\n        bool buyOnChain,\n        bytes memory signature\n    ) public payable nonReentrant {\n        require(\n            _verifyHashSignature(\n                keccak256(\n                    abi.encode(\n                        traitId,\n                        sponsorAddress,\n                        commissionPercentage,\n                        quantity,\n                        price,\n                        buyOnChain,\n                        msg.sender\n                    )\n                ),\n                signature\n            ),\n            \"TraitShop: Signature is invalid\"\n        );\n        require(msg.value >= price, \"TraitShop: Invalid price\");\n\n        uint256 commission = (msg.value * commissionPercentage) / 100;\n\n        _ethBalances[owner()] += msg.value - commission;\n\n        _ethBalances[sponsorAddress] += commission;\n\n        if (buyOnChain) {\n            apesTraits.mint(msg.sender, traitId, quantity);\n        }\n\n        emit TraitBought(msg.sender, traitId, msg.value, quantity, buyOnChain);\n    }\n\n    function buyTraitWithERC20(\n        uint256 traitId,\n        address sponsorAddress,\n        uint256 commissionPercentage,\n        uint256 quantity,\n        uint256 price,\n        address erc20TokenAddress,\n        bool buyOnChain,\n        bytes memory signature\n    ) public onlyWhitelistedToken(erc20TokenAddress) nonReentrant {\n        require(\n            _verifyHashSignature(\n                keccak256(\n                    abi.encode(\n                        traitId,\n                        sponsorAddress,\n                        commissionPercentage,\n                        quantity,\n                        price,\n                        erc20TokenAddress,\n                        buyOnChain,\n                        msg.sender\n                    )\n                ),\n                signature\n            ),\n            \"TraitShop: Signature is invalid\"\n        );\n        IERC20(erc20TokenAddress).transferFrom(\n            msg.sender,\n            address(this),\n            price\n        );\n\n        uint256 commission = (price * commissionPercentage) / 100;\n\n        _tokenBalances[owner()][erc20TokenAddress] += price - commission;\n\n        _tokenBalances[sponsorAddress][erc20TokenAddress] += commission;\n\n        if (buyOnChain) {\n            apesTraits.mint(msg.sender, traitId, quantity);\n        }\n\n        emit TraitBought(msg.sender, traitId, price, quantity, buyOnChain);\n    }\n\n    function withdrawAll() public {\n        uint256 ethBalance = _ethBalances[msg.sender];\n\n        if (ethBalance > 0) {\n            _ethBalances[msg.sender] = 0;\n            payable(msg.sender).transfer(ethBalance);\n        }\n\n        address[] memory tokens = whiteListedTokens;\n        for (uint256 i = 0; i < tokens.length; i++) {\n            address token = tokens[i];\n            uint256 tokenBalance = _tokenBalances[msg.sender][token];\n            if (tokenBalance > 0) {\n                _tokenBalances[msg.sender][token] = 0;\n                IERC20(token).transfer(msg.sender, tokenBalance);\n            }\n        }\n    }\n\n    function getEthBalance(address account) public view returns (uint256) {\n        return _ethBalances[account];\n    }\n\n    function getTokenBalance(\n        address account,\n        address token\n    ) public view returns (uint256) {\n        return _tokenBalances[account][token];\n    }\n\n    function setSecret(address _secret) external onlyOwner {\n        secret = _secret;\n    }\n\n    function _verifyHashSignature(\n        bytes32 freshHash,\n        bytes memory signature\n    ) internal view returns (bool) {\n        bytes32 hash = keccak256(\n            abi.encodePacked(\"\\x19Ethereum Signed Message:\\n32\", freshHash)\n        );\n\n        bytes32 r;\n        bytes32 s;\n        uint8 v;\n\n        if (signature.length != 65) {\n            return false;\n        }\n        assembly {\n            r := mload(add(signature, 32))\n            s := mload(add(signature, 64))\n            v := byte(0, mload(add(signature, 96)))\n        }\n\n        if (v < 27) {\n            v += 27;\n        }\n\n        address signer = address(0);\n        if (v == 27 || v == 28) {\n            // solium-disable-next-line arg-overflow\n            signer = ecrecover(hash, v, r, s);\n        }\n        return secret == signer;\n    }\n}\n",
  "sourcePath": "/Users/muhammadshaheem/Documents/work/juan_projects/trait-shop/contracts/TraitShop.sol",
  "compiler": {
    "name": "solc",
    "version": "0.8.19+commit.7dd6d404.Emscripten.clang"
  },
  "schemaVersion": "3.4.13",
  "updatedAt": "2023-04-18T17:37:14.225Z",
  "devdoc": {
    "kind": "dev",
    "methods": {
      "owner()": {
        "details": "Returns the address of the current owner."
      },
      "renounceOwnership()": {
        "details": "Leaves the contract without owner. It will not be possible to call `onlyOwner` functions anymore. Can only be called by the current owner. NOTE: Renouncing ownership will leave the contract without an owner, thereby removing any functionality that is only available to the owner."
      },
      "transferOwnership(address)": {
        "details": "Transfers ownership of the contract to a new account (`newOwner`). Can only be called by the current owner."
      }
    },
    "version": 1
  },
  "userdoc": {
    "kind": "user",
    "methods": {},
    "version": 1
  }
}