{
  "contractName": "TraitShop",
  "abi": [
    {
      "inputs": [
        {
          "internalType": "address",
          "name": "_apesTraits",
          "type": "address"
        },
        {
          "internalType": "address",
          "name": "_secret",
          "type": "address"
        }
      ],
      "stateMutability": "nonpayable",
      "type": "constructor"
    },
    {
      "anonymous": false,
      "inputs": [
        {
          "indexed": true,
          "internalType": "address",
          "name": "previousOwner",
          "type": "address"
        },
        {
          "indexed": true,
          "internalType": "address",
          "name": "newOwner",
          "type": "address"
        }
      ],
      "name": "OwnershipTransferred",
      "type": "event"
    },
    {
      "anonymous": false,
      "inputs": [
        {
          "indexed": true,
          "internalType": "address",
          "name": "buyer",
          "type": "address"
        },
        {
          "indexed": true,
          "internalType": "uint256",
          "name": "traitId",
          "type": "uint256"
        },
        {
          "indexed": false,
          "internalType": "uint256",
          "name": "price",
          "type": "uint256"
        },
        {
          "indexed": false,
          "internalType": "uint256",
          "name": "quantity",
          "type": "uint256"
        },
        {
          "indexed": false,
          "internalType": "bool",
          "name": "buyOnChain",
          "type": "bool"
        }
      ],
      "name": "TraitBought",
      "type": "event"
    },
    {
      "inputs": [],
      "name": "apesTraits",
      "outputs": [
        {
          "internalType": "contract ApesTraitsInterface",
          "name": "",
          "type": "address"
        }
      ],
      "stateMutability": "view",
      "type": "function",
      "constant": true
    },
    {
      "inputs": [
        {
          "internalType": "address",
          "name": "",
          "type": "address"
        }
      ],
      "name": "isAdmin",
      "outputs": [
        {
          "internalType": "bool",
          "name": "",
          "type": "bool"
        }
      ],
      "stateMutability": "view",
      "type": "function",
      "constant": true
    },
    {
      "inputs": [
        {
          "internalType": "address",
          "name": "",
          "type": "address"
        }
      ],
      "name": "isTokenWhitelisted",
      "outputs": [
        {
          "internalType": "bool",
          "name": "",
          "type": "bool"
        }
      ],
      "stateMutability": "view",
      "type": "function",
      "constant": true
    },
    {
      "inputs": [],
      "name": "owner",
      "outputs": [
        {
          "internalType": "address",
          "name": "",
          "type": "address"
        }
      ],
      "stateMutability": "view",
      "type": "function",
      "constant": true
    },
    {
      "inputs": [],
      "name": "renounceOwnership",
      "outputs": [],
      "stateMutability": "nonpayable",
      "type": "function"
    },
    {
      "inputs": [],
      "name": "secret",
      "outputs": [
        {
          "internalType": "address",
          "name": "",
          "type": "address"
        }
      ],
      "stateMutability": "view",
      "type": "function",
      "constant": true
    },
    {
      "inputs": [
        {
          "internalType": "address",
          "name": "newOwner",
          "type": "address"
        }
      ],
      "name": "transferOwnership",
      "outputs": [],
      "stateMutability": "nonpayable",
      "type": "function"
    },
    {
      "inputs": [
        {
          "internalType": "uint256",
          "name": "",
          "type": "uint256"
        }
      ],
      "name": "whiteListedTokens",
      "outputs": [
        {
          "internalType": "address",
          "name": "",
          "type": "address"
        }
      ],
      "stateMutability": "view",
      "type": "function",
      "constant": true
    },
    {
      "inputs": [
        {
          "internalType": "address[]",
          "name": "admins",
          "type": "address[]"
        }
      ],
      "name": "setAdmins",
      "outputs": [],
      "stateMutability": "nonpayable",
      "type": "function"
    },
    {
      "inputs": [
        {
          "internalType": "address[]",
          "name": "tokenAddress",
          "type": "address[]"
        }
      ],
      "name": "setWhiteListedTokensAddress",
      "outputs": [],
      "stateMutability": "nonpayable",
      "type": "function"
    },
    {
      "inputs": [
        {
          "internalType": "uint256",
          "name": "traitId",
          "type": "uint256"
        },
        {
          "internalType": "address",
          "name": "sponsorAddress",
          "type": "address"
        },
        {
          "internalType": "uint256",
          "name": "quantity",
          "type": "uint256"
        },
        {
          "internalType": "uint256",
          "name": "price",
          "type": "uint256"
        },
        {
          "internalType": "uint256",
          "name": "commissionPercentage",
          "type": "uint256"
        },
        {
          "internalType": "bool",
          "name": "buyOnChain",
          "type": "bool"
        },
        {
          "internalType": "bytes",
          "name": "signature",
          "type": "bytes"
        }
      ],
      "name": "buyTraitWithETH",
      "outputs": [],
      "stateMutability": "payable",
      "type": "function",
      "payable": true
    },
    {
      "inputs": [
        {
          "internalType": "uint256",
          "name": "traitId",
          "type": "uint256"
        },
        {
          "internalType": "address",
          "name": "sponsorAddress",
          "type": "address"
        },
        {
          "internalType": "uint256",
          "name": "quantity",
          "type": "uint256"
        },
        {
          "internalType": "uint256",
          "name": "price",
          "type": "uint256"
        },
        {
          "internalType": "address",
          "name": "erc20TokenAddress",
          "type": "address"
        },
        {
          "internalType": "uint256",
          "name": "commissionPercentage",
          "type": "uint256"
        },
        {
          "internalType": "bool",
          "name": "buyOnChain",
          "type": "bool"
        },
        {
          "internalType": "bytes",
          "name": "signature",
          "type": "bytes"
        }
      ],
      "name": "buyTraitWithERC20",
      "outputs": [],
      "stateMutability": "nonpayable",
      "type": "function"
    },
    {
      "inputs": [],
      "name": "withdrawAll",
      "outputs": [],
      "stateMutability": "nonpayable",
      "type": "function"
    },
    {
      "inputs": [
        {
          "internalType": "address",
          "name": "account",
          "type": "address"
        }
      ],
      "name": "getEthBalance",
      "outputs": [
        {
          "internalType": "uint256",
          "name": "",
          "type": "uint256"
        }
      ],
      "stateMutability": "view",
      "type": "function",
      "constant": true
    },
    {
      "inputs": [
        {
          "internalType": "address",
          "name": "account",
          "type": "address"
        },
        {
          "internalType": "address",
          "name": "token",
          "type": "address"
        }
      ],
      "name": "getTokenBalance",
      "outputs": [
        {
          "internalType": "uint256",
          "name": "",
          "type": "uint256"
        }
      ],
      "stateMutability": "view",
      "type": "function",
      "constant": true
    },
    {
      "inputs": [
        {
          "internalType": "address",
          "name": "_secret",
          "type": "address"
        }
      ],
      "name": "setSecret",
      "outputs": [],
      "stateMutability": "nonpayable",
      "type": "function"
    }
  ],
  "bytecode": "0x60806040523480156200001157600080fd5b506040516200257c3803806200257c83398181016040528101906200003791906200021e565b620000576200004b620000e860201b60201c565b620000f060201b60201c565b6001808190555081600760006101000a81548173ffffffffffffffffffffffffffffffffffffffff021916908373ffffffffffffffffffffffffffffffffffffffff16021790555080600860006101000a81548173ffffffffffffffffffffffffffffffffffffffff021916908373ffffffffffffffffffffffffffffffffffffffff160217905550505062000265565b600033905090565b60008060009054906101000a900473ffffffffffffffffffffffffffffffffffffffff169050816000806101000a81548173ffffffffffffffffffffffffffffffffffffffff021916908373ffffffffffffffffffffffffffffffffffffffff1602179055508173ffffffffffffffffffffffffffffffffffffffff168173ffffffffffffffffffffffffffffffffffffffff167f8be0079c531659141344cd1fd0a4f28419497f9722a3daafe3b4186f6b6457e060405160405180910390a35050565b600080fd5b600073ffffffffffffffffffffffffffffffffffffffff82169050919050565b6000620001e682620001b9565b9050919050565b620001f881620001d9565b81146200020457600080fd5b50565b6000815190506200021881620001ed565b92915050565b60008060408385031215620002385762000237620001b4565b5b6000620002488582860162000207565b92505060206200025b8582860162000207565b9150509250929050565b61230780620002756000396000f3fe6080604052600436106100f35760003560e01c80638da5cb5b1161008a578063d1efd30d11610059578063d1efd30d1461031b578063e9a7484c14610346578063f2fde38b1461036f578063ff08ea0714610398576100f3565b80638da5cb5b1461024d578063accc1d5e14610278578063b5af090f146102a1578063c489744b146102de576100f3565b806360d8cfbd116100c657806360d8cfbd146101c65780636aee0e63146101e2578063715018a61461021f578063853828b614610236576100f3565b806310ef0310146100f857806324d7806c146101235780634d2301cc146101605780635ecb63e61461019d575b600080fd5b34801561010457600080fd5b5061010d6103c1565b60405161011a9190611535565b60405180910390f35b34801561012f57600080fd5b5061014a600480360381019061014591906115a2565b6103e7565b60405161015791906115ea565b60405180910390f35b34801561016c57600080fd5b50610187600480360381019061018291906115a2565b610407565b604051610194919061161e565b60405180910390f35b3480156101a957600080fd5b506101c460048036038101906101bf9190611792565b610450565b005b6101e060048036038101906101db91906118e8565b61056a565b005b3480156101ee57600080fd5b50610209600480360381019061020491906119a6565b610805565b60405161021691906119e2565b60405180910390f35b34801561022b57600080fd5b50610234610844565b005b34801561024257600080fd5b5061024b610858565b005b34801561025957600080fd5b50610262610b8e565b60405161026f91906119e2565b60405180910390f35b34801561028457600080fd5b5061029f600480360381019061029a9190611792565b610bb7565b005b3480156102ad57600080fd5b506102c860048036038101906102c391906115a2565b610c4c565b6040516102d591906115ea565b60405180910390f35b3480156102ea57600080fd5b50610305600480360381019061030091906119fd565b610c6c565b604051610312919061161e565b60405180910390f35b34801561032757600080fd5b50610330610cf3565b60405161033d91906119e2565b60405180910390f35b34801561035257600080fd5b5061036d600480360381019061036891906115a2565b610d19565b005b34801561037b57600080fd5b50610396600480360381019061039191906115a2565b610d65565b005b3480156103a457600080fd5b506103bf60048036038101906103ba9190611a3d565b610de8565b005b600760009054906101000a900473ffffffffffffffffffffffffffffffffffffffff1681565b60056020528060005260406000206000915054906101000a900460ff1681565b6000600260008373ffffffffffffffffffffffffffffffffffffffff1673ffffffffffffffffffffffffffffffffffffffff168152602001908152602001600020549050919050565b6104586111cc565b60005b815181101561056657600382828151811061047957610478611b0f565b5b60200260200101519080600181540180825580915050600190039060005260206000200160009091909190916101000a81548173ffffffffffffffffffffffffffffffffffffffff021916908373ffffffffffffffffffffffffffffffffffffffff1602179055506001600460008484815181106104fa576104f9611b0f565b5b602002602001015173ffffffffffffffffffffffffffffffffffffffff1673ffffffffffffffffffffffffffffffffffffffff16815260200190815260200160002060006101000a81548160ff021916908315150217905550808061055e90611b6d565b91505061045b565b5050565b61057261124a565b6105ac87878588883360405160200161059096959493929190611bb5565b6040516020818303038152906040528051906020012082611299565b6105eb576040517f08c379a00000000000000000000000000000000000000000000000000000000081526004016105e290611c73565b60405180910390fd5b8334101561062e576040517f08c379a000000000000000000000000000000000000000000000000000000000815260040161062590611cdf565b60405180910390fd5b60006064843461063e9190611cff565b6106489190611d70565b905080346106569190611da1565b60026000610662610b8e565b73ffffffffffffffffffffffffffffffffffffffff1673ffffffffffffffffffffffffffffffffffffffff16815260200190815260200160002060008282546106ab9190611dd5565b9250508190555080600260008973ffffffffffffffffffffffffffffffffffffffff1673ffffffffffffffffffffffffffffffffffffffff16815260200190815260200160002060008282546107019190611dd5565b9250508190555082156107a057600760009054906101000a900473ffffffffffffffffffffffffffffffffffffffff1673ffffffffffffffffffffffffffffffffffffffff1663156e29f6338a896040518463ffffffff1660e01b815260040161076d93929190611e09565b600060405180830381600087803b15801561078757600080fd5b505af115801561079b573d6000803e3d6000fd5b505050505b873373ffffffffffffffffffffffffffffffffffffffff167fee6cb29eb1c00f061a94fe2a2ab0abc83bbb47951f17aee4ac247480c715a2c03489876040516107eb93929190611e40565b60405180910390a3506107fc6113e1565b50505050505050565b6003818154811061081557600080fd5b906000526020600020016000915054906101000a900473ffffffffffffffffffffffffffffffffffffffff1681565b61084c6111cc565b61085660006113ea565b565b6000600260003373ffffffffffffffffffffffffffffffffffffffff1673ffffffffffffffffffffffffffffffffffffffff1681526020019081526020016000205490506000811115610932576000600260003373ffffffffffffffffffffffffffffffffffffffff1673ffffffffffffffffffffffffffffffffffffffff168152602001908152602001600020819055503373ffffffffffffffffffffffffffffffffffffffff166108fc829081150290604051600060405180830381858888f19350505050158015610930573d6000803e3d6000fd5b505b600060038054806020026020016040519081016040528092919081815260200182805480156109b657602002820191906000526020600020905b8160009054906101000a900473ffffffffffffffffffffffffffffffffffffffff1673ffffffffffffffffffffffffffffffffffffffff168152602001906001019080831161096c575b5050505050905060005b8151811015610b895760008282815181106109de576109dd611b0f565b5b602002602001015190506000600660003373ffffffffffffffffffffffffffffffffffffffff1673ffffffffffffffffffffffffffffffffffffffff16815260200190815260200160002060008373ffffffffffffffffffffffffffffffffffffffff1673ffffffffffffffffffffffffffffffffffffffff1681526020019081526020016000205490506000811115610b74576000600660003373ffffffffffffffffffffffffffffffffffffffff1673ffffffffffffffffffffffffffffffffffffffff16815260200190815260200160002060008473ffffffffffffffffffffffffffffffffffffffff1673ffffffffffffffffffffffffffffffffffffffff168152602001908152602001600020819055508173ffffffffffffffffffffffffffffffffffffffff1663a9059cbb33836040518363ffffffff1660e01b8152600401610b2f929190611e77565b6020604051808303816000875af1158015610b4e573d6000803e3d6000fd5b505050506040513d601f19601f82011682018060405250810190610b729190611eb5565b505b50508080610b8190611b6d565b9150506109c0565b505050565b60008060009054906101000a900473ffffffffffffffffffffffffffffffffffffffff16905090565b60005b8151811015610c4857600160056000848481518110610bdc57610bdb611b0f565b5b602002602001015173ffffffffffffffffffffffffffffffffffffffff1673ffffffffffffffffffffffffffffffffffffffff16815260200190815260200160002060006101000a81548160ff0219169083151502179055508080610c4090611b6d565b915050610bba565b5050565b60046020528060005260406000206000915054906101000a900460ff1681565b6000600660008473ffffffffffffffffffffffffffffffffffffffff1673ffffffffffffffffffffffffffffffffffffffff16815260200190815260200160002060008373ffffffffffffffffffffffffffffffffffffffff1673ffffffffffffffffffffffffffffffffffffffff16815260200190815260200160002054905092915050565b600860009054906101000a900473ffffffffffffffffffffffffffffffffffffffff1681565b610d216111cc565b80600860006101000a81548173ffffffffffffffffffffffffffffffffffffffff021916908373ffffffffffffffffffffffffffffffffffffffff16021790555050565b610d6d6111cc565b600073ffffffffffffffffffffffffffffffffffffffff168173ffffffffffffffffffffffffffffffffffffffff1603610ddc576040517f08c379a0000000000000000000000000000000000000000000000000000000008152600401610dd390611f54565b60405180910390fd5b610de5816113ea565b50565b83600460008273ffffffffffffffffffffffffffffffffffffffff1673ffffffffffffffffffffffffffffffffffffffff16815260200190815260200160002060009054906101000a900460ff16610e75576040517f08c379a0000000000000000000000000000000000000000000000000000000008152600401610e6c90611fe6565b60405180910390fd5b610e7d61124a565b610eb98989868a8a8a33604051602001610e9d9796959493929190612006565b6040516020818303038152906040528051906020012083611299565b610ef8576040517f08c379a0000000000000000000000000000000000000000000000000000000008152600401610eef90611c73565b60405180910390fd5b8473ffffffffffffffffffffffffffffffffffffffff166323b872dd3330896040518463ffffffff1660e01b8152600401610f3593929190612075565b6020604051808303816000875af1158015610f54573d6000803e3d6000fd5b505050506040513d601f19601f82011682018060405250810190610f789190611eb5565b50600060648588610f899190611cff565b610f939190611d70565b90508087610fa19190611da1565b60066000610fad610b8e565b73ffffffffffffffffffffffffffffffffffffffff1673ffffffffffffffffffffffffffffffffffffffff16815260200190815260200160002060008873ffffffffffffffffffffffffffffffffffffffff1673ffffffffffffffffffffffffffffffffffffffff16815260200190815260200160002060008282546110339190611dd5565b9250508190555080600660008b73ffffffffffffffffffffffffffffffffffffffff1673ffffffffffffffffffffffffffffffffffffffff16815260200190815260200160002060008873ffffffffffffffffffffffffffffffffffffffff1673ffffffffffffffffffffffffffffffffffffffff16815260200190815260200160002060008282546110c69190611dd5565b92505081905550831561116557600760009054906101000a900473ffffffffffffffffffffffffffffffffffffffff1673ffffffffffffffffffffffffffffffffffffffff1663156e29f6338c8b6040518463ffffffff1660e01b815260040161113293929190611e09565b600060405180830381600087803b15801561114c57600080fd5b505af1158015611160573d6000803e3d6000fd5b505050505b893373ffffffffffffffffffffffffffffffffffffffff167fee6cb29eb1c00f061a94fe2a2ab0abc83bbb47951f17aee4ac247480c715a2c0898b886040516111b093929190611e40565b60405180910390a3506111c16113e1565b505050505050505050565b6111d46114ae565b73ffffffffffffffffffffffffffffffffffffffff166111f2610b8e565b73ffffffffffffffffffffffffffffffffffffffff1614611248576040517f08c379a000000000000000000000000000000000000000000000000000000000815260040161123f906120f8565b60405180910390fd5b565b60026001540361128f576040517f08c379a000000000000000000000000000000000000000000000000000000000815260040161128690612164565b60405180910390fd5b6002600181905550565b600080836040516020016112ad9190612206565b604051602081830303815290604052805190602001209050600080600060418651146112e05760009450505050506113db565b6020860151925060408601519150606086015160001a9050601b8160ff16101561131457601b816113119190612239565b90505b6000601b8260ff16148061132b5750601c8260ff16145b156113825760018583868660405160008152602001604052604051611353949392919061228c565b6020604051602081039080840390855afa158015611375573d6000803e3d6000fd5b5050506020604051035190505b8073ffffffffffffffffffffffffffffffffffffffff16600860009054906101000a900473ffffffffffffffffffffffffffffffffffffffff1673ffffffffffffffffffffffffffffffffffffffff1614955050505050505b92915050565b60018081905550565b60008060009054906101000a900473ffffffffffffffffffffffffffffffffffffffff169050816000806101000a81548173ffffffffffffffffffffffffffffffffffffffff021916908373ffffffffffffffffffffffffffffffffffffffff1602179055508173ffffffffffffffffffffffffffffffffffffffff168173ffffffffffffffffffffffffffffffffffffffff167f8be0079c531659141344cd1fd0a4f28419497f9722a3daafe3b4186f6b6457e060405160405180910390a35050565b600033905090565b600073ffffffffffffffffffffffffffffffffffffffff82169050919050565b6000819050919050565b60006114fb6114f66114f1846114b6565b6114d6565b6114b6565b9050919050565b600061150d826114e0565b9050919050565b600061151f82611502565b9050919050565b61152f81611514565b82525050565b600060208201905061154a6000830184611526565b92915050565b6000604051905090565b600080fd5b600080fd5b600061156f826114b6565b9050919050565b61157f81611564565b811461158a57600080fd5b50565b60008135905061159c81611576565b92915050565b6000602082840312156115b8576115b761155a565b5b60006115c68482850161158d565b91505092915050565b60008115159050919050565b6115e4816115cf565b82525050565b60006020820190506115ff60008301846115db565b92915050565b6000819050919050565b61161881611605565b82525050565b6000602082019050611633600083018461160f565b92915050565b600080fd5b6000601f19601f8301169050919050565b7f4e487b7100000000000000000000000000000000000000000000000000000000600052604160045260246000fd5b6116878261163e565b810181811067ffffffffffffffff821117156116a6576116a561164f565b5b80604052505050565b60006116b9611550565b90506116c5828261167e565b919050565b600067ffffffffffffffff8211156116e5576116e461164f565b5b602082029050602081019050919050565b600080fd5b600061170e611709846116ca565b6116af565b90508083825260208201905060208402830185811115611731576117306116f6565b5b835b8181101561175a5780611746888261158d565b845260208401935050602081019050611733565b5050509392505050565b600082601f83011261177957611778611639565b5b81356117898482602086016116fb565b91505092915050565b6000602082840312156117a8576117a761155a565b5b600082013567ffffffffffffffff8111156117c6576117c561155f565b5b6117d284828501611764565b91505092915050565b6117e481611605565b81146117ef57600080fd5b50565b600081359050611801816117db565b92915050565b611810816115cf565b811461181b57600080fd5b50565b60008135905061182d81611807565b92915050565b600080fd5b600067ffffffffffffffff8211156118535761185261164f565b5b61185c8261163e565b9050602081019050919050565b82818337600083830152505050565b600061188b61188684611838565b6116af565b9050828152602081018484840111156118a7576118a6611833565b5b6118b2848285611869565b509392505050565b600082601f8301126118cf576118ce611639565b5b81356118df848260208601611878565b91505092915050565b600080600080600080600060e0888a0312156119075761190661155a565b5b60006119158a828b016117f2565b97505060206119268a828b0161158d565b96505060406119378a828b016117f2565b95505060606119488a828b016117f2565b94505060806119598a828b016117f2565b93505060a061196a8a828b0161181e565b92505060c088013567ffffffffffffffff81111561198b5761198a61155f565b5b6119978a828b016118ba565b91505092959891949750929550565b6000602082840312156119bc576119bb61155a565b5b60006119ca848285016117f2565b91505092915050565b6119dc81611564565b82525050565b60006020820190506119f760008301846119d3565b92915050565b60008060408385031215611a1457611a1361155a565b5b6000611a228582860161158d565b9250506020611a338582860161158d565b9150509250929050565b600080600080600080600080610100898b031215611a5e57611a5d61155a565b5b6000611a6c8b828c016117f2565b9850506020611a7d8b828c0161158d565b9750506040611a8e8b828c016117f2565b9650506060611a9f8b828c016117f2565b9550506080611ab08b828c0161158d565b94505060a0611ac18b828c016117f2565b93505060c0611ad28b828c0161181e565b92505060e089013567ffffffffffffffff811115611af357611af261155f565b5b611aff8b828c016118ba565b9150509295985092959890939650565b7f4e487b7100000000000000000000000000000000000000000000000000000000600052603260045260246000fd5b7f4e487b7100000000000000000000000000000000000000000000000000000000600052601160045260246000fd5b6000611b7882611605565b91507fffffffffffffffffffffffffffffffffffffffffffffffffffffffffffffffff8203611baa57611ba9611b3e565b5b600182019050919050565b600060c082019050611bca600083018961160f565b611bd760208301886119d3565b611be4604083018761160f565b611bf1606083018661160f565b611bfe608083018561160f565b611c0b60a08301846119d3565b979650505050505050565b600082825260208201905092915050565b7f547261697453686f703a205369676e617475726520697320696e76616c696400600082015250565b6000611c5d601f83611c16565b9150611c6882611c27565b602082019050919050565b60006020820190508181036000830152611c8c81611c50565b9050919050565b7f547261697453686f703a20496e76616c69642070726963650000000000000000600082015250565b6000611cc9601883611c16565b9150611cd482611c93565b602082019050919050565b60006020820190508181036000830152611cf881611cbc565b9050919050565b6000611d0a82611605565b9150611d1583611605565b9250828202611d2381611605565b91508282048414831517611d3a57611d39611b3e565b5b5092915050565b7f4e487b7100000000000000000000000000000000000000000000000000000000600052601260045260246000fd5b6000611d7b82611605565b9150611d8683611605565b925082611d9657611d95611d41565b5b828204905092915050565b6000611dac82611605565b9150611db783611605565b9250828203905081811115611dcf57611dce611b3e565b5b92915050565b6000611de082611605565b9150611deb83611605565b9250828201905080821115611e0357611e02611b3e565b5b92915050565b6000606082019050611e1e60008301866119d3565b611e2b602083018561160f565b611e38604083018461160f565b949350505050565b6000606082019050611e55600083018661160f565b611e62602083018561160f565b611e6f60408301846115db565b949350505050565b6000604082019050611e8c60008301856119d3565b611e99602083018461160f565b9392505050565b600081519050611eaf81611807565b92915050565b600060208284031215611ecb57611eca61155a565b5b6000611ed984828501611ea0565b91505092915050565b7f4f776e61626c653a206e6577206f776e657220697320746865207a65726f206160008201527f6464726573730000000000000000000000000000000000000000000000000000602082015250565b6000611f3e602683611c16565b9150611f4982611ee2565b604082019050919050565b60006020820190508181036000830152611f6d81611f31565b9050919050565b7f547261697453686f703a20546f6b656e2061646472657373206973206e6f742060008201527f77686974656c69737465642e0000000000000000000000000000000000000000602082015250565b6000611fd0602c83611c16565b9150611fdb82611f74565b604082019050919050565b60006020820190508181036000830152611fff81611fc3565b9050919050565b600060e08201905061201b600083018a61160f565b61202860208301896119d3565b612035604083018861160f565b612042606083018761160f565b61204f608083018661160f565b61205c60a08301856119d3565b61206960c08301846119d3565b98975050505050505050565b600060608201905061208a60008301866119d3565b61209760208301856119d3565b6120a4604083018461160f565b949350505050565b7f4f776e61626c653a2063616c6c6572206973206e6f7420746865206f776e6572600082015250565b60006120e2602083611c16565b91506120ed826120ac565b602082019050919050565b60006020820190508181036000830152612111816120d5565b9050919050565b7f5265656e7472616e637947756172643a207265656e7472616e742063616c6c00600082015250565b600061214e601f83611c16565b915061215982612118565b602082019050919050565b6000602082019050818103600083015261217d81612141565b9050919050565b600081905092915050565b7f19457468657265756d205369676e6564204d6573736167653a0a333200000000600082015250565b60006121c5601c83612184565b91506121d08261218f565b601c82019050919050565b6000819050919050565b6000819050919050565b6122006121fb826121db565b6121e5565b82525050565b6000612211826121b8565b915061221d82846121ef565b60208201915081905092915050565b600060ff82169050919050565b60006122448261222c565b915061224f8361222c565b9250828201905060ff81111561226857612267611b3e565b5b92915050565b612277816121db565b82525050565b6122868161222c565b82525050565b60006080820190506122a1600083018761226e565b6122ae602083018661227d565b6122bb604083018561226e565b6122c8606083018461226e565b9594505050505056fea2646970667358221220d09e72046f9a741f8e0d8239af86e8e2eb2279486db049b1ba6e0560ddcbade864736f6c63430008130033",
  "immutableReferences": {},
  "source": "// SPDX-License-Identifier: MIT\npragma solidity 0.8.19;\nimport \"@openzeppelin/contracts/access/Ownable.sol\";\nimport \"@openzeppelin/contracts/security/ReentrancyGuard.sol\";\nimport \"@openzeppelin/contracts/token/ERC20/IERC20.sol\";\nimport \"./Interfaces/ApesTraitsInterface.sol\";\n\ncontract TraitShop is Ownable, ReentrancyGuard {\n    mapping(address => uint256) private _ethBalances;\n    address[] public whiteListedTokens;\n    mapping(address => bool) public isTokenWhitelisted;\n    mapping(address => bool) public isAdmin;\n\n    mapping(address => mapping(address => uint256)) private _tokenBalances;\n\n    ApesTraitsInterface public apesTraits;\n    address public secret;\n\n    event TraitBought(\n        address indexed buyer,\n        uint256 indexed traitId,\n        uint256 price,\n        uint256 quantity,\n        bool buyOnChain\n    );\n\n    constructor(address _apesTraits, address _secret) {\n        apesTraits = ApesTraitsInterface(_apesTraits);\n        secret = _secret;\n    }\n\n    function setAdmins(address[] memory admins) external {\n     for (uint i = 0; i < admins.length; i++) {\n            isAdmin[admins[i]] = true;\n        }\n    }\n\n    function setWhiteListedTokensAddress(\n        address[] memory tokenAddress\n    ) public onlyOwner {\n        for (uint i = 0; i < tokenAddress.length; i++) {\n            whiteListedTokens.push(tokenAddress[i]);\n            isTokenWhitelisted[tokenAddress[i]] = true;\n        }\n    }\n\n    modifier onlyWhitelistedToken(address tokenAddress) {\n        require(\n            isTokenWhitelisted[tokenAddress],\n            \"TraitShop: Token address is not whitelisted.\"\n        );\n        _;\n    }\n\n    function buyTraitWithETH(\n        uint256 traitId,\n        address sponsorAddress,\n        uint256 quantity,\n        uint256 price,\n        uint commissionPercentage,\n        bool buyOnChain,\n        bytes memory signature\n    ) external payable nonReentrant {\n        require(\n            _verifyHashSignature(\n                keccak256(\n                    abi.encode(\n                        traitId,\n                        sponsorAddress,\n                        commissionPercentage,\n                        quantity,\n                        price,\n                        msg.sender\n                    )\n                ),\n                signature\n            ),\n            \"TraitShop: Signature is invalid\"\n        );\n        require(msg.value >= price, \"TraitShop: Invalid price\");\n\n        uint256 commission = (msg.value * commissionPercentage) / 100;\n\n        _ethBalances[owner()] += msg.value - commission;\n\n        _ethBalances[sponsorAddress] += commission;\n\n        if (buyOnChain) {\n            apesTraits.mint(msg.sender, traitId, quantity);\n        }\n\n        emit TraitBought(msg.sender, traitId, msg.value, quantity, buyOnChain);\n    }\n\n    function buyTraitWithERC20(\n        uint256 traitId,\n        address sponsorAddress,\n        uint256 quantity,\n        uint256 price,\n        address erc20TokenAddress,\n        uint commissionPercentage,\n        bool buyOnChain,\n        bytes memory signature\n    ) external onlyWhitelistedToken(erc20TokenAddress) nonReentrant {\n        require(\n            _verifyHashSignature(\n                keccak256(\n                    abi.encode(\n                        traitId,\n                        sponsorAddress,\n                        commissionPercentage,\n                        quantity,\n                        price,\n                        erc20TokenAddress,\n                        msg.sender\n                    )\n                ),\n                signature\n            ),\n            \"TraitShop: Signature is invalid\"\n        );\n        IERC20(erc20TokenAddress).transferFrom(\n            msg.sender,\n            address(this),\n            price\n        );\n\n        uint256 commission = (price * commissionPercentage) / 100;\n\n        _tokenBalances[owner()][erc20TokenAddress] += price - commission;\n\n        _tokenBalances[sponsorAddress][erc20TokenAddress] += commission;\n\n        if (buyOnChain) {\n            apesTraits.mint(msg.sender, traitId, quantity);\n        }\n\n        emit TraitBought(msg.sender, traitId, price, quantity, buyOnChain);\n    }\n\n    function withdrawAll() external {\n        uint256 ethBalance = _ethBalances[msg.sender];\n\n        if (ethBalance > 0) {\n            _ethBalances[msg.sender] = 0;\n            payable(msg.sender).transfer(ethBalance);\n        }\n\n        address[] memory tokens = whiteListedTokens;\n        for (uint256 i = 0; i < tokens.length; i++) {\n            address token = tokens[i];\n            uint256 tokenBalance = _tokenBalances[msg.sender][token];\n            if (tokenBalance > 0) {\n                _tokenBalances[msg.sender][token] = 0;\n                IERC20(token).transfer(msg.sender, tokenBalance);\n            }\n        }\n    }\n\n    function getEthBalance(address account) external view returns (uint256) {\n        return _ethBalances[account];\n    }\n\n    function getTokenBalance(\n        address account,\n        address token\n    ) external view returns (uint256) {\n        return _tokenBalances[account][token];\n    }\n\n    function setSecret(address _secret) external onlyOwner {\n        secret = _secret;\n    }\n\n    function _verifyHashSignature(\n        bytes32 freshHash,\n        bytes memory signature\n    ) internal view returns (bool) {\n        bytes32 hash = keccak256(\n            abi.encodePacked(\"\\x19Ethereum Signed Message:\\n32\", freshHash)\n        );\n\n        bytes32 r;\n        bytes32 s;\n        uint8 v;\n\n        if (signature.length != 65) {\n            return false;\n        }\n        assembly {\n            r := mload(add(signature, 32))\n            s := mload(add(signature, 64))\n            v := byte(0, mload(add(signature, 96)))\n        }\n\n        if (v < 27) {\n            v += 27;\n        }\n\n        address signer = address(0);\n        if (v == 27 || v == 28) {\n            // solium-disable-next-line arg-overflow\n            signer = ecrecover(hash, v, r, s);\n        }\n        return secret == signer;\n    }\n}\n",
  "sourcePath": "/Users/muhammadshaheem/Documents/work/juan_projects/trait-shop/contracts/TraitShop.sol",
  "compiler": {
    "name": "solc",
    "version": "0.8.19+commit.7dd6d404.Emscripten.clang"
  },
  "schemaVersion": "3.4.13",
  "updatedAt": "2023-04-28T00:10:41.544Z",
  "networkType": "ethereum",
  "devdoc": {
    "kind": "dev",
    "methods": {
      "owner()": {
        "details": "Returns the address of the current owner."
      },
      "renounceOwnership()": {
        "details": "Leaves the contract without owner. It will not be possible to call `onlyOwner` functions anymore. Can only be called by the current owner. NOTE: Renouncing ownership will leave the contract without an owner, thereby removing any functionality that is only available to the owner."
      },
      "transferOwnership(address)": {
        "details": "Transfers ownership of the contract to a new account (`newOwner`). Can only be called by the current owner."
      }
    },
    "version": 1
  },
  "userdoc": {
    "kind": "user",
    "methods": {},
    "version": 1
  }
}